:100000000C9434000C9449000C9449000C94490061
:100010000C9449000C9449000C9449000C9449003C
:100020000C9449000C9449000C9449000C9449002C
:100030000C9449000C9449000C9449000C9449001C
:100040000C9449000C9449000C9449000C9449000C
:100050000C9449000C9449000C9449000C944900FC
:100060000C9449000C94490011241FBECFEFD8E036
:10007000DEBFCDBF11E0A0E0B1E0E0E0F1E002C002
:1000800005900D92AC34B107D9F70E944B000C9447
:100090007E000C9400008FE290E09093C500809366
:1000A000C4008091C10088608093C1008091C1002C
:1000B00080618093C10086E08093C200FFCF90935F
:1000C000C5008093C400E1ECF0E08081886080830B
:1000D00080818061808386E08093C2000895982F9C
:1000E0008091C00085FFFCCF9093C6000895809159
:1000F000C00087FFFCCF8091C6000895F894FFCF21
:1001000031323334353637383930313233343536AD
:1001100037383930003E3E2055534320454534356D
:10012000394C203C3C003E3E2061743332382D3641
:100130002E63203C3C3C002D2D20417072696C20C8
:0C01400031312C2032303131202D2D00C7
:00000001FF
