:100000000C9434000C9449000C9449000C94490061
:100010000C9449000C9449000C9449000C9449003C
:100020000C9449000C9449000C9449000C9449002C
:100030000C9449000C9449000C9449000C9449001C
:100040000C9449000C9449000C9449000C9449000C
:100050000C9449000C9449000C9449000C944900FC
:100060000C9449000C94490011241FBECFEFD8E036
:10007000DEBFCDBF11E0A0E0B1E0E8EEF0E002C0ED
:1000800005900D92AC34B107D9F70E9469000C9429
:1000900072000C9400009093C5008093C400E1ECC2
:1000A000F0E080818860808380818061808386E049
:1000B0008093C20008959091C00095FFFCCF80937B
:1000C000C60008958091C00087FFFCCF8091C600D4
:1000D00008958FE290E00E944B000E9462000E940F
:0800E0005B00FBCFF894FFCF99
:1000E8002D2D20417072696C2031312C2032303135
:1000F80031202D2D003E3E2061743332382D362EAE
:1001080063203C3C3C003E3E20555343204545344B
:1001180035394C203C3C00313233343536373839A8
:0C0128003031323334353637383930008E
:00000001FF
