:100000000C9434000C943E000C943E000C943E0082
:100010000C943E000C943E000C943E000C943E0068
:100020000C943E000C943E000C943E000C943E0058
:100030000C943E000C943E000C943E000C943E0048
:100040000C943E000C943E000C943E000C943E0038
:100050000C943E000C943E000C943E000C943E0028
:100060000C943E000C943E0011241FBECFEFD8E04C
:10007000DEBFCDBF0E9451000C945A000C940000CA
:10008000409A82E0982F9A95F1F74098982F9A9588
:10009000F1F7419A982F9A95F1F741988A95F1F7DF
:1000A00008958FE387B98FEB84B98FEF8AB90E94E7
:0800B0004000FDCFF894FFCFE2
:00000001FF
